{
  "_format": "hh-sol-artifact-1",
  "contractName": "Abhishek_Token",
  "sourceName": "contracts/Token.sol",
  "abi": [
    {
      "inputs": [
        {
          "internalType": "uint256",
          "name": "tth",
          "type": "uint256"
        }
      ],
      "stateMutability": "nonpayable",
      "type": "constructor"
    },
    {
      "inputs": [
        {
          "internalType": "address",
          "name": "spender",
          "type": "address"
        },
        {
          "internalType": "uint256",
          "name": "allowance",
          "type": "uint256"
        },
        {
          "internalType": "uint256",
          "name": "needed",
          "type": "uint256"
        }
      ],
      "name": "ERC20InsufficientAllowance",
      "type": "error"
    },
    {
      "inputs": [
        {
          "internalType": "address",
          "name": "sender",
          "type": "address"
        },
        {
          "internalType": "uint256",
          "name": "balance",
          "type": "uint256"
        },
        {
          "internalType": "uint256",
          "name": "needed",
          "type": "uint256"
        }
      ],
      "name": "ERC20InsufficientBalance",
      "type": "error"
    },
    {
      "inputs": [
        {
          "internalType": "address",
          "name": "approver",
          "type": "address"
        }
      ],
      "name": "ERC20InvalidApprover",
      "type": "error"
    },
    {
      "inputs": [
        {
          "internalType": "address",
          "name": "receiver",
          "type": "address"
        }
      ],
      "name": "ERC20InvalidReceiver",
      "type": "error"
    },
    {
      "inputs": [
        {
          "internalType": "address",
          "name": "sender",
          "type": "address"
        }
      ],
      "name": "ERC20InvalidSender",
      "type": "error"
    },
    {
      "inputs": [
        {
          "internalType": "address",
          "name": "spender",
          "type": "address"
        }
      ],
      "name": "ERC20InvalidSpender",
      "type": "error"
    },
    {
      "anonymous": false,
      "inputs": [
        {
          "indexed": true,
          "internalType": "address",
          "name": "owner",
          "type": "address"
        },
        {
          "indexed": true,
          "internalType": "address",
          "name": "spender",
          "type": "address"
        },
        {
          "indexed": false,
          "internalType": "uint256",
          "name": "value",
          "type": "uint256"
        }
      ],
      "name": "Approval",
      "type": "event"
    },
    {
      "anonymous": false,
      "inputs": [
        {
          "indexed": true,
          "internalType": "address",
          "name": "from",
          "type": "address"
        },
        {
          "indexed": true,
          "internalType": "address",
          "name": "to",
          "type": "address"
        },
        {
          "indexed": false,
          "internalType": "uint256",
          "name": "value",
          "type": "uint256"
        }
      ],
      "name": "Transfer",
      "type": "event"
    },
    {
      "inputs": [],
      "name": "_totalSupply",
      "outputs": [
        {
          "internalType": "uint256",
          "name": "",
          "type": "uint256"
        }
      ],
      "stateMutability": "view",
      "type": "function"
    },
    {
      "inputs": [
        {
          "internalType": "address",
          "name": "owner",
          "type": "address"
        },
        {
          "internalType": "address",
          "name": "spender",
          "type": "address"
        }
      ],
      "name": "allowance",
      "outputs": [
        {
          "internalType": "uint256",
          "name": "",
          "type": "uint256"
        }
      ],
      "stateMutability": "view",
      "type": "function"
    },
    {
      "inputs": [
        {
          "internalType": "address",
          "name": "spender",
          "type": "address"
        },
        {
          "internalType": "uint256",
          "name": "value",
          "type": "uint256"
        }
      ],
      "name": "approve",
      "outputs": [
        {
          "internalType": "bool",
          "name": "",
          "type": "bool"
        }
      ],
      "stateMutability": "nonpayable",
      "type": "function"
    },
    {
      "inputs": [
        {
          "internalType": "address",
          "name": "account",
          "type": "address"
        }
      ],
      "name": "balanceOf",
      "outputs": [
        {
          "internalType": "uint256",
          "name": "",
          "type": "uint256"
        }
      ],
      "stateMutability": "view",
      "type": "function"
    },
    {
      "inputs": [],
      "name": "decimals",
      "outputs": [
        {
          "internalType": "uint8",
          "name": "",
          "type": "uint8"
        }
      ],
      "stateMutability": "view",
      "type": "function"
    },
    {
      "inputs": [],
      "name": "name",
      "outputs": [
        {
          "internalType": "string",
          "name": "",
          "type": "string"
        }
      ],
      "stateMutability": "view",
      "type": "function"
    },
    {
      "inputs": [],
      "name": "symbol",
      "outputs": [
        {
          "internalType": "string",
          "name": "",
          "type": "string"
        }
      ],
      "stateMutability": "view",
      "type": "function"
    },
    {
      "inputs": [],
      "name": "totalSupply",
      "outputs": [
        {
          "internalType": "uint256",
          "name": "",
          "type": "uint256"
        }
      ],
      "stateMutability": "view",
      "type": "function"
    },
    {
      "inputs": [
        {
          "internalType": "address",
          "name": "to",
          "type": "address"
        },
        {
          "internalType": "uint256",
          "name": "value",
          "type": "uint256"
        }
      ],
      "name": "transfer",
      "outputs": [
        {
          "internalType": "bool",
          "name": "",
          "type": "bool"
        }
      ],
      "stateMutability": "nonpayable",
      "type": "function"
    },
    {
      "inputs": [
        {
          "internalType": "address",
          "name": "from",
          "type": "address"
        },
        {
          "internalType": "address",
          "name": "to",
          "type": "address"
        },
        {
          "internalType": "uint256",
          "name": "value",
          "type": "uint256"
        }
      ],
      "name": "transferFrom",
      "outputs": [
        {
          "internalType": "bool",
          "name": "",
          "type": "bool"
        }
      ],
      "stateMutability": "nonpayable",
      "type": "function"
    }
  ],
  "bytecode": "0x60806040523480156200001157600080fd5b50604051620018c7380380620018c78339818101604052810190620000379190620003e8565b6040518060400160405280600881526020017f416268697368656b0000000000000000000000000000000000000000000000008152506040518060400160405280600281526020017f414b0000000000000000000000000000000000000000000000000000000000008152508160039081620000b491906200068a565b508060049081620000c691906200068a565b50505080600581905550620000e433600554620000eb60201b60201c565b50620008a8565b600073ffffffffffffffffffffffffffffffffffffffff168273ffffffffffffffffffffffffffffffffffffffff1603620001605760006040517fec442f05000000000000000000000000000000000000000000000000000000008152600401620001579190620007b6565b60405180910390fd5b62000174600083836200017860201b60201c565b5050565b600073ffffffffffffffffffffffffffffffffffffffff168373ffffffffffffffffffffffffffffffffffffffff1603620001ce578060026000828254620001c1919062000802565b92505081905550620002a4565b60008060008573ffffffffffffffffffffffffffffffffffffffff1673ffffffffffffffffffffffffffffffffffffffff168152602001908152602001600020549050818110156200025d578381836040517fe450d38c00000000000000000000000000000000000000000000000000000000815260040162000254939291906200084e565b60405180910390fd5b8181036000808673ffffffffffffffffffffffffffffffffffffffff1673ffffffffffffffffffffffffffffffffffffffff16815260200190815260200160002081905550505b600073ffffffffffffffffffffffffffffffffffffffff168273ffffffffffffffffffffffffffffffffffffffff1603620002ef57806002600082825403925050819055506200033c565b806000808473ffffffffffffffffffffffffffffffffffffffff1673ffffffffffffffffffffffffffffffffffffffff168152602001908152602001600020600082825401925050819055505b8173ffffffffffffffffffffffffffffffffffffffff168373ffffffffffffffffffffffffffffffffffffffff167fddf252ad1be2c89b69c2b068fc378daa952ba7f163c4a11628f55a4df523b3ef836040516200039b91906200088b565b60405180910390a3505050565b600080fd5b6000819050919050565b620003c281620003ad565b8114620003ce57600080fd5b50565b600081519050620003e281620003b7565b92915050565b600060208284031215620004015762000400620003a8565b5b60006200041184828501620003d1565b91505092915050565b600081519050919050565b7f4e487b7100000000000000000000000000000000000000000000000000000000600052604160045260246000fd5b7f4e487b7100000000000000000000000000000000000000000000000000000000600052602260045260246000fd5b600060028204905060018216806200049c57607f821691505b602082108103620004b257620004b162000454565b5b50919050565b60008190508160005260206000209050919050565b60006020601f8301049050919050565b600082821b905092915050565b6000600883026200051c7fffffffffffffffffffffffffffffffffffffffffffffffffffffffffffffffff82620004dd565b620005288683620004dd565b95508019841693508086168417925050509392505050565b6000819050919050565b60006200056b620005656200055f84620003ad565b62000540565b620003ad565b9050919050565b6000819050919050565b62000587836200054a565b6200059f620005968262000572565b848454620004ea565b825550505050565b600090565b620005b6620005a7565b620005c38184846200057c565b505050565b5b81811015620005eb57620005df600082620005ac565b600181019050620005c9565b5050565b601f8211156200063a576200060481620004b8565b6200060f84620004cd565b810160208510156200061f578190505b620006376200062e85620004cd565b830182620005c8565b50505b505050565b600082821c905092915050565b60006200065f600019846008026200063f565b1980831691505092915050565b60006200067a83836200064c565b9150826002028217905092915050565b62000695826200041a565b67ffffffffffffffff811115620006b157620006b062000425565b5b620006bd825462000483565b620006ca828285620005ef565b600060209050601f831160018114620007025760008415620006ed578287015190505b620006f985826200066c565b86555062000769565b601f1984166200071286620004b8565b60005b828110156200073c5784890151825560018201915060208501945060208101905062000715565b868310156200075c578489015162000758601f8916826200064c565b8355505b6001600288020188555050505b505050505050565b600073ffffffffffffffffffffffffffffffffffffffff82169050919050565b60006200079e8262000771565b9050919050565b620007b08162000791565b82525050565b6000602082019050620007cd6000830184620007a5565b92915050565b7f4e487b7100000000000000000000000000000000000000000000000000000000600052601160045260246000fd5b60006200080f82620003ad565b91506200081c83620003ad565b9250828201905080821115620008375762000836620007d3565b5b92915050565b6200084881620003ad565b82525050565b6000606082019050620008656000830186620007a5565b6200087460208301856200083d565b6200088360408301846200083d565b949350505050565b6000602082019050620008a260008301846200083d565b92915050565b61100f80620008b86000396000f3fe608060405234801561001057600080fd5b506004361061009e5760003560e01c80633eaaf86b116100665780633eaaf86b1461015d57806370a082311461017b57806395d89b41146101ab578063a9059cbb146101c9578063dd62ed3e146101f95761009e565b806306fdde03146100a3578063095ea7b3146100c157806318160ddd146100f157806323b872dd1461010f578063313ce5671461013f575b600080fd5b6100ab610229565b6040516100b89190610b8d565b60405180910390f35b6100db60048036038101906100d69190610c48565b6102bb565b6040516100e89190610ca3565b60405180910390f35b6100f96102de565b6040516101069190610ccd565b60405180910390f35b61012960048036038101906101249190610ce8565b6102e8565b6040516101369190610ca3565b60405180910390f35b610147610317565b6040516101549190610d57565b60405180910390f35b610165610320565b6040516101729190610ccd565b60405180910390f35b61019560048036038101906101909190610d72565b610326565b6040516101a29190610ccd565b60405180910390f35b6101b361036e565b6040516101c09190610b8d565b60405180910390f35b6101e360048036038101906101de9190610c48565b610400565b6040516101f09190610ca3565b60405180910390f35b610213600480360381019061020e9190610d9f565b610456565b6040516102209190610ccd565b60405180910390f35b60606003805461023890610e0e565b80601f016020809104026020016040519081016040528092919081815260200182805461026490610e0e565b80156102b15780601f10610286576101008083540402835291602001916102b1565b820191906000526020600020905b81548152906001019060200180831161029457829003601f168201915b5050505050905090565b6000806102c66104dd565b90506102d38185856104e5565b600191505092915050565b6000600254905090565b6000806102f36104dd565b90506103008582856104f7565b61030b85858561058b565b60019150509392505050565b60006012905090565b60055481565b60008060008373ffffffffffffffffffffffffffffffffffffffff1673ffffffffffffffffffffffffffffffffffffffff168152602001908152602001600020549050919050565b60606004805461037d90610e0e565b80601f01602080910402602001604051908101604052809291908181526020018280546103a990610e0e565b80156103f65780601f106103cb576101008083540402835291602001916103f6565b820191906000526020600020905b8154815290600101906020018083116103d957829003601f168201915b5050505050905090565b60008061040b6104dd565b90506000606460058561041e9190610e6e565b6104289190610edf565b90506104408286838761043b9190610f10565b61058b565b61044a338261067f565b60019250505092915050565b6000600160008473ffffffffffffffffffffffffffffffffffffffff1673ffffffffffffffffffffffffffffffffffffffff16815260200190815260200160002060008373ffffffffffffffffffffffffffffffffffffffff1673ffffffffffffffffffffffffffffffffffffffff16815260200190815260200160002054905092915050565b600033905090565b6104f28383836001610701565b505050565b60006105038484610456565b90507fffffffffffffffffffffffffffffffffffffffffffffffffffffffffffffffff81146105855781811015610575578281836040517ffb8f41b200000000000000000000000000000000000000000000000000000000815260040161056c93929190610f53565b60405180910390fd5b61058484848484036000610701565b5b50505050565b600073ffffffffffffffffffffffffffffffffffffffff168373ffffffffffffffffffffffffffffffffffffffff16036105fd5760006040517f96c6fd1e0000000000000000000000000000000000000000000000000000000081526004016105f49190610f8a565b60405180910390fd5b600073ffffffffffffffffffffffffffffffffffffffff168273ffffffffffffffffffffffffffffffffffffffff160361066f5760006040517fec442f050000000000000000000000000000000000000000000000000000000081526004016106669190610f8a565b60405180910390fd5b61067a8383836108d8565b505050565b600073ffffffffffffffffffffffffffffffffffffffff168273ffffffffffffffffffffffffffffffffffffffff16036106f15760006040517f96c6fd1e0000000000000000000000000000000000000000000000000000000081526004016106e89190610f8a565b60405180910390fd5b6106fd826000836108d8565b5050565b600073ffffffffffffffffffffffffffffffffffffffff168473ffffffffffffffffffffffffffffffffffffffff16036107735760006040517fe602df0500000000000000000000000000000000000000000000000000000000815260040161076a9190610f8a565b60405180910390fd5b600073ffffffffffffffffffffffffffffffffffffffff168373ffffffffffffffffffffffffffffffffffffffff16036107e55760006040517f94280d620000000000000000000000000000000000000000000000000000000081526004016107dc9190610f8a565b60405180910390fd5b81600160008673ffffffffffffffffffffffffffffffffffffffff1673ffffffffffffffffffffffffffffffffffffffff16815260200190815260200160002060008573ffffffffffffffffffffffffffffffffffffffff1673ffffffffffffffffffffffffffffffffffffffff1681526020019081526020016000208190555080156108d2578273ffffffffffffffffffffffffffffffffffffffff168473ffffffffffffffffffffffffffffffffffffffff167f8c5be1e5ebec7d5bd14f71427d1e84f3dd0314c0f7b2291e5b200ac8c7c3b925846040516108c99190610ccd565b60405180910390a35b50505050565b600073ffffffffffffffffffffffffffffffffffffffff168373ffffffffffffffffffffffffffffffffffffffff160361092a57806002600082825461091e9190610fa5565b925050819055506109fd565b60008060008573ffffffffffffffffffffffffffffffffffffffff1673ffffffffffffffffffffffffffffffffffffffff168152602001908152602001600020549050818110156109b6578381836040517fe450d38c0000000000000000000000000000000000000000000000000000000081526004016109ad93929190610f53565b60405180910390fd5b8181036000808673ffffffffffffffffffffffffffffffffffffffff1673ffffffffffffffffffffffffffffffffffffffff16815260200190815260200160002081905550505b600073ffffffffffffffffffffffffffffffffffffffff168273ffffffffffffffffffffffffffffffffffffffff1603610a465780600260008282540392505081905550610a93565b806000808473ffffffffffffffffffffffffffffffffffffffff1673ffffffffffffffffffffffffffffffffffffffff168152602001908152602001600020600082825401925050819055505b8173ffffffffffffffffffffffffffffffffffffffff168373ffffffffffffffffffffffffffffffffffffffff167fddf252ad1be2c89b69c2b068fc378daa952ba7f163c4a11628f55a4df523b3ef83604051610af09190610ccd565b60405180910390a3505050565b600081519050919050565b600082825260208201905092915050565b60005b83811015610b37578082015181840152602081019050610b1c565b60008484015250505050565b6000601f19601f8301169050919050565b6000610b5f82610afd565b610b698185610b08565b9350610b79818560208601610b19565b610b8281610b43565b840191505092915050565b60006020820190508181036000830152610ba78184610b54565b905092915050565b600080fd5b600073ffffffffffffffffffffffffffffffffffffffff82169050919050565b6000610bdf82610bb4565b9050919050565b610bef81610bd4565b8114610bfa57600080fd5b50565b600081359050610c0c81610be6565b92915050565b6000819050919050565b610c2581610c12565b8114610c3057600080fd5b50565b600081359050610c4281610c1c565b92915050565b60008060408385031215610c5f57610c5e610baf565b5b6000610c6d85828601610bfd565b9250506020610c7e85828601610c33565b9150509250929050565b60008115159050919050565b610c9d81610c88565b82525050565b6000602082019050610cb86000830184610c94565b92915050565b610cc781610c12565b82525050565b6000602082019050610ce26000830184610cbe565b92915050565b600080600060608486031215610d0157610d00610baf565b5b6000610d0f86828701610bfd565b9350506020610d2086828701610bfd565b9250506040610d3186828701610c33565b9150509250925092565b600060ff82169050919050565b610d5181610d3b565b82525050565b6000602082019050610d6c6000830184610d48565b92915050565b600060208284031215610d8857610d87610baf565b5b6000610d9684828501610bfd565b91505092915050565b60008060408385031215610db657610db5610baf565b5b6000610dc485828601610bfd565b9250506020610dd585828601610bfd565b9150509250929050565b7f4e487b7100000000000000000000000000000000000000000000000000000000600052602260045260246000fd5b60006002820490506001821680610e2657607f821691505b602082108103610e3957610e38610ddf565b5b50919050565b7f4e487b7100000000000000000000000000000000000000000000000000000000600052601160045260246000fd5b6000610e7982610c12565b9150610e8483610c12565b9250828202610e9281610c12565b91508282048414831517610ea957610ea8610e3f565b5b5092915050565b7f4e487b7100000000000000000000000000000000000000000000000000000000600052601260045260246000fd5b6000610eea82610c12565b9150610ef583610c12565b925082610f0557610f04610eb0565b5b828204905092915050565b6000610f1b82610c12565b9150610f2683610c12565b9250828203905081811115610f3e57610f3d610e3f565b5b92915050565b610f4d81610bd4565b82525050565b6000606082019050610f686000830186610f44565b610f756020830185610cbe565b610f826040830184610cbe565b949350505050565b6000602082019050610f9f6000830184610f44565b92915050565b6000610fb082610c12565b9150610fbb83610c12565b9250828201905080821115610fd357610fd2610e3f565b5b9291505056fea26469706673582212205f1e9eb079ffe8d8f5910201b4710dfba930dd5f1a248582a69c41be4f934a3064736f6c63430008140033",
  "linkReferences": {},
  "deployedLinkReferences": {}
}